:1000000000800020BD010000252C0000F12B000025
:10001000F12B0000F12B0000F12B0000F12B000070
:10002000F12B0000F12B0000F12B0000252C00002B
:10003000252C0000F12B0000252C0000E12B0000F6
:10004000252C0000252C0000252C0000252C00006C
:10005000252C0000252C0000252C0000252C00005C
:10006000252C0000252C0000252C0000252C00004C
:10007000252C0000252C0000252C0000252C00003C
:10008000252C0000252C0000252C0000252C00002C
:10009000252C0000252C0000252C0000252C00001C
:1000A000252C0000252C0000252C0000252C00000C
:1000B000252C0000252C0000252C0000252C0000FC
:1000C000252C0000252C0000252C0000252C0000EC
:1000D000252C0000252C0000252C0000252C0000DC
:1000E000252C0000252C0000252C0000252C0000CC
:1000F000252C0000ED420000252C0000A94900003D
:10010000252C0000A94E0000252C0000252C000005
:10011000252C0000252C0000252C0000252C00009B
:10012000252C0000252C0000252C0000252C00008B
:10013000252C0000252C0000252C0000252C00007B
:10014000252C0000252C0000252C0000252C00006B
:10015000252C0000252C0000252C0000252C00005B
:10016000252C00005D300000252C0000252C00000F
:10017000252C0000252C0000252C0000252C00003B
:10018000252C0000252C0000252C0000252C00002B
:10019000252C0000252C0000252C0000252C00001B
:1001A000252C0000252C0000252C0000252C00000B
:1001B000252C0000252C0000252C0000564B4CF26D
:1001C000205210B51A804DF628121A8000BF00BFC9
:1001D00002F02CFD514B4FF010621A60504A9A60A9
:1001E000504ADA60A3F53043203B1A6812F480725B
:1001F00004D14D490A604FF4A8521A604B4B1A784B
:10020000110703D51A7842F008021A70484B2A22C7
:100210001A700023474A48499818884204D247492F
:10022000595899500433F5E7454A464B9A424FF0E6
:10023000000302D242F8043BF7E74349434A5958C6
:1002400099500433B3F5DE7FF7D1414B802103F899
:10025000011B40498B42F9D13F4B1A603F4B8A2228
:100260001A70A3F5805324225A70A0221A709A792A
:100270009207FCD59A79D406FCD4394B9A7902F0CE
:100280000C02082AF9D105221A7143225A719A796F
:100290009006FCD5324B9A795106FBD5314A4FF086
:1002A000817111600521516020221A702C4B9B79BD
:1002B00003F00C030C2BF9D12B4B2C4A1A602C4B5E
:1002C0002C4A1A6000225A60072243F8042C2A4A5A
:1002D000C3F80C2D62B602F0A7FD134B1B68DA07BA
:1002E00005D5264802F0FAFC254B264A1A60264B13
:1002F0001B785B0609D5224C224A2368934204D11D
:100300001E4802F0EBFC0023236006F009FA02F01D
:1003100093FC02F05DFCFEE70E20054030800440B7
:10032000823F04000100002B14D0034002D007409C
:1003300000E007406087FF1FB888FF1F647100005E
:10034000B888FF1F1091FF1F000000000082FF1FF0
:1003500000E400E05FE400E008ED00E0005006404B
:10036000004006404480044004800440C010050062
:1003700014E000E03F19010000002020A524AE5841
:100380001CE00340A5C3945A00F00740FFFFFFFFA5
:10039000FFFFFFFFFFFFFFFFFFFFFFFFFFFFFFFF6D
:1003A000FFFFFFFFFFFFFFFFFFFFFFFFFFFFFFFF5D
:1003B000FFFFFFFFFFFFFFFFFFFFFFFFFFFFFFFF4D
:1003C000FFFFFFFFFFFFFFFFFFFFFFFFFFFFFFFF3D
:1003D000FFFFFFFFFFFFFFFFFFFFFFFFFFFFFFFF2D
:1003E000FFFFFFFFFFFFFFFFFFFFFFFFFFFFFFFF1D
:1003F000FFFFFFFFFFFFFFFFFFFFFFFFFFFFFFFF0D
:10040000FFFFFFFFFFFFFFFFFFFFFFFFDEF9FFFF23
:1004100010B5054C237833B9044B13B10448AFF33E
:1004200000800123237010BDB888FF1F000000006A
:100430006471000008B5064B1BB106480649AFF3CE
:1004400000800648036813B1054B03B1984708BD07
:100450000000000064710000BC88FF1FB888FF1F07
:1004600000000000074A138803EB432003EB8000E1
:1004700000F55850193080B2108000EB1020C0B247
:10048000704700BF5288FF1F054A138803EB4320C3
:1004900003EB800000F55850193080B2108070478F
:1004A0005288FF1F410410B5C0F3CA0303D5C3F53A
:1004B000FF6307339BB21A0A084C0949895C34F878
:1004C0001220C3F3460301FB03239BB202044ABF7D
:1004D000584298B280B200B210BD00BF98680000C8
:1004E000686900004069704713B5002304688DF8FF
:1004F00000308DF801308DF8023024688DF804301A
:100500000A468DF805308DF80630694601ABA047E4
:1005100002B010BD4FF4C8707047FFFF10B5012145
:100520000446072002F018FC0423A361014BE36199
:1005300010BD00BFC0F00F40034B82B01B68019399
:10054000019B036002B070470C8EFF1F38B5044654
:1005500008460D4606F076F9236802465B68204699
:100560002946984738BDFFFF13B5084A436812680B
:100570000192019C0268A41A9C4234BF0024012409
:100580000CB1FFF7D9FF204602B010BD0C8EFF1F43
:1005900010B502780C7882FA54F202704C784278E6
:1005A00082FA54F242708978827882FA51F282702B
:1005B00010BD2DE9F04F074689B0002451F82430D2
:1005C000DEB20134FF2EE4B2F8D10B680291C3F31E
:1005D0000720C3F307424FEA13684FF0000B02995C
:1005E00051F8043F0291C3F307295FFA89F1C3F37D
:1005F000074CC3F3076EDDB204915FFA8EF35FFA26
:100600008CF14FEA2B1B0F2C059103935FFA8BF1B2
:100610004FEA15130CD84FFA86FAD34507DCBAF126
:100620000E0F04DC0136F1B2994228BF0B46DEB250
:100630008DF8192007AA8DF818000092384606AAEE
:100640008DF81A808DF81C908DF81DC08DF81EE075
:1006500005F07CFBFF2D05D00498059ADDF80C8091
:10066000AB46BCE7384609B0BDE8F08F4FF4FA70EE
:1006700002F0C4BB7FB52D4D2D4E2B682D4C13F0D1
:10068000010F10D1284602F0E1FA60B133680193FE
:10069000019A4FF47A73B2FBF3F3238028460A23BE
:1006A000638002F0D9FA33680293029A21884FF4EA
:1006B0007A73B2FBF3F2521A618892B2914216D861
:1006C0001B4A12680392039AB2FBF3F3194A138090
:1006D000194A13780133DBB2202B01D9213BFAE709
:1006E0001370164A164852F82310FFF762FF154C94
:1006F0002368DB070DD4204602F0A8FA48B1124B5C
:10070000124D1E782846FFF717FF6E60204602F054
:10071000A3FA0E48FFF728FF28B10B4B0C480849F5
:100720001A7805F055FC04B070BD00BF188AFF1F91
:100730000C8EFF1F9889FF1F508BFF1FD06B00008E
:10074000788AFF1F1C8AFF1F8C87FF1F5C8DFF1F8D
:10075000518BFF1F08B5002002F0B4F905200121DC
:1007600002F0FAFA0420012102F0F6FA0020014614
:1007700002F0F2FA0120002102F0EEFA0520002139
:1007800002F0BCFA0420002102F0B8FA0121052091
:1007900002F0B4FA012002F031FB0520002102F042
:1007A000ADFA0420012102F0A9FA0120BDE80840B9
:1007B00002F024BB4FF4FA7002F020BB37B52D488D
:1007C000046814F001041FD102F040FAE0B12A4B92
:1007D000FF221A735A739A73DA731A745A740122C5
:1007E0009A74264A5C6011685C619C6001B9136070
:1007F00023490A6802B1936000221A841D48214AE5
:100800000B601A6002F028FA1F491B481F4D8E2208
:10081000002305F033FAB0224273F0228273FF23E3
:100820001B4A03738DF80430932312688DF805304A
:100830002846292301A92A708DF8063005F080F991
:100840008E24002310488DF804308E2101AA8DF8E3
:1008500005308DF8063005F049FA013CF1D12978D0
:100860000A4805F09FF90948642105F0DBF903B057
:1008700030BD00BFFC88FF1FD888FF1FDC90FF1F22
:10088000EC90FF1F60680000B08BFF1FCC90FF1F33
:100890006487FF1F13B5102002F000FA0422002322
:1008A0008DE80C0010210F220323044605F0F8F810
:1008B000014B1C6002B010BD708AFF1F08B5FFF726
:1008C000E3FD0A4B1880FFF7DFFD094B1880FFF7A7
:1008D000DBFD04F0F7FE074B1860FFF7D5FD43F290
:1008E00039035843044A030C138008BDF089FF1FE5
:1008F000048BFF1F9489FF1F208BFF1F08B5FFF794
:1009000059FFFFF75BFFFFF7C5FFFFF723FFBDE8C8
:100910000840FFF7D3BF08B54FF4FA7002F06EFA43
:10092000FFF7ECFFBDE80840FFF7A0BE2DE9F04F50
:10093000AA4CAB4A2368AB4E1360AB4A33681360D2
:10094000AA4BDFF804931868A94DDFF8D8B2DFF896
:10095000DC8285B00027029305F05CF8A54A1060A0
:10096000D9F8000005F056F8A34ADFF8BCC21060C1
:10097000012100220520CBF80020C8F80020CCF887
:100980000020276037602F60CDF80CC002F0B6F968
:100990000520394602F0B2F91822013A7FF4FDAF82
:1009A000BA46964B964F5AF8030005F033F80021EB
:1009B0003860042002F0A2F94FF45873013B7FF431
:1009C000FDAF904B5AF803208F4B00201A6002F0C5
:1009D0009DF839688D4B88421A6803DB9042A8BFA6
:1009E000104600E00846DFF86482FF270023C8F8BD
:1009F0000000009701F08DFFC8F80000DFF80882C2
:100A0000D8F8002003928146104604F05FFE039A56
:100A10008346C2EB090004F059FE7D4A116804F0D8
:100A2000A9FE0146584604F09DFD04F0F3FF754B06
:100A30004AF8030023681844764B20605AF80330C4
:100A4000C8F80030012002F061F86D4B19686F4B57
:100A500088421A683B4603DB9042A8BF104600E07C
:100A600008466D4F38600093002301F052FF664B3B
:100A700038601F688146384604F028FE8046C7EB80
:100A8000090004F023FE624B624F196804F072FE05
:100A90000146404604F066FD04F0BCFF33684AF8A6
:100AA0000700184430600121042002F027F91823C0
:100AB000013B7FF4FDAFDFF84C815AF807305AF85C
:100AC0000800184404F002FE4FF07C5104F052FE7E
:100AD00004F0A0FF514A2B684AF802000AF1040A08
:100AE0000344BAF11C0F2B6091467FF45AAF206883
:100AF000029304F0EBFD0146494804F0EFFE394A49
:100B0000484904460860106804F0E0FD0146444886
:100B100004F0E4FE029B444A05461060184604F0C7
:100B2000D5FD824651463E4804F0D8FE3F4B514623
:100B3000186006463E4804F0D1FE3E4B82461860DF
:100B40004FF0000B59F80B0004F0C0FD5146029025
:100B500004F010FE04F05EFF374A029B42F80B00DF
:100B60003146184604F006FE04F054FF334B43F8B8
:100B70000B0058F80B0004F0A9FD214604F0FAFD23
:100B800004F096FB05F03CFD04F096FC029004F0A6
:100B900041FF2B4A42F80B0057F80B0004F096FD7A
:100BA000294604F0E7FD04F083FB05F029FD04F07D
:100BB00083FC039004F02EFF2249039A41F80B00B6
:100BC0000BF1040BBBF11C0F029BBBD107490B605F
:100BD0001D4B1A6005B0BDE8F08F00BFB48AFF1F3F
:100BE000248BFF1FD489FF1FAC8AFF1FD48AFF1FED
:100BF000B08AFF1FF88DFF1F088AFF1F5889FF1F4B
:100C0000A087FF1FB889FF1F088BFF1F9887FF1F52
:100C10009487FF1F9C89FF1F108AFF1F848BFF1F73
:100C200000008C42D88AFF1F008AFF1F248AFF1F02
:100C300000000E43488AFF1F288BFF1F4C8AFF1FAE
:100C40007889FF1F0489FF1FE089FF1FAC8BFF1FFE
:100C50002DE9F04385B0FFF70DFD2A4B4FF08042A0
:100C600000241A6025461F463E68284604F02EFDE3
:100C7000314604F07FFD04F0F3FE234B1FFA80F8A9
:100C8000188804F023FD314604F06CFC04F0E8FE03
:100C90001E4E1FFA80F9306804F0E2FE494682B227
:100CA000404605F09FFCFF23B0FBF3F20244012114
:100CB0000091D2B203A8164905F032F9154B9DF800
:100CC0000C20E25423449DF80D205A7001359DF804
:100CD0000E209A708E2D04F10304C5D10E4B1868B6
:100CE00004F0F4FC0D4904F045FD4FF07C5104F094
:100CF00039FC0146306804F035FC306005B0BDE8D1
:100D0000F08300BF6087FF1F208BFF1F9489FF1FA8
:100D1000518BFF1FB08BFF1F848BFF1F8FC2F53CD1
:100D20001F4B2DE9F7431F4A1A601F4B0A221A6016
:100D30001E4B64221A601E4B042200251A602C46AA
:100D40009846D8F800101B4A1B4B694311601B4999
:100D500004F11406062D51F82510196008BF8D26E0
:100D600091461F46B44212DAD9F800103B788DF84C
:100D7000041013498DF8063004EB4403FF2201A848
:100D800019448DF80520013405F049F9EAE70135E9
:100D9000072D01D03446D4E703B0BDE8F08300BF8F
:100DA0009487FF1FCDCCCC3D048AFF1FA087FF1F77
:100DB0009087FF1F108BFF1F6487FF1F848BFF1F0F
:100DC000B08BFF1F424B434A2DE9F04F1A60424B54
:100DD0000A221A60414B2122002485B01A60254660
:100DE0009A464FF096083E4BCDF80080002153F80C
:100DF00024003C4FDFF800B10B46FF2201F089FDD3
:100E0000394B38600021CDF8008053F82400FF22D0
:100E10000B4601F07EFDDAF80020344BCBF80000E1
:100E2000624305F10A061A60994664B9304BCDF861
:100E3000008018682146FF22234601F06AFD0C2637
:100E40003860CBF8000005F146082A4F08EB48034C
:100E500007EB030B06F14502424513DB214BD9F8A2
:100E6000002019788DF80C208DF80E10FF225946BD
:100E700003A88DF80D2008F1010805F0D0F80BF15A
:100E8000030BE7E7C5F14605C6F146039D4212DDB7
:100E9000194B05EB45011A78D9F800308DF80C3064
:100EA00003A8FF2339448DF80D308DF80E20013D45
:100EB00005F0B5F8E8E70134072C01D0354690E796
:100EC0000C488E210A2204F0B9FF05B0BDE8F08F6E
:100ED0009487FF1F8FC2F53D048AFF1F9087FF1F75
:100EE000B889FF1F148AFF1F9C89FF1F108BFF1FEB
:100EF000848BFF1FB08BFF1FF489FF1FF7B5494E8E
:100F0000A6F14605A6F145046F78FFF7ABFA00B2EB
:100F100000EB400300EB8300A7EB202727EAE777ED
:100F200005F8017FB542EFD14625675DFFF79AFAD4
:100F300000B200EB400300EB8300A7EB202727EA79
:100F4000E777675501358D2DEFD1374B013B13F80E
:100F5000011C1A7802EB4102032192FBF1F2B34229
:100F60005A70F3D1314AA2F14703D878997801EB4E
:100F70004001032091FBF0F103F8011F9342F4D1EB
:100F8000FFF770FA09282BD8FFF76CFA0546FFF730
:100F900069FA00B2C0EBC00636124636A75DFFF70D
:100FA00061FA00B200EB4003C0EB43121212603A48
:100FB0003B4683FA52F328B2C0EBC0000512A3559A
:100FC000C5F14605665DFFF74DFA00B200EB400340
:100FD000C0EB431000126038334683FA50F3635578
:100FE000002501A8615D04F07AFF114B1B7813B155
:100FF000C5F18D0300E02B460E499DF8040003EB7C
:101000004303CA18C85401359DF8053053708E2D1E
:101010009DF806309370E4D10748032104F002FEE6
:1010200003B0F0BDA98DFF1FF18DFF1FAA8DFF1F1B
:10103000488BFF1FB08BFF1FCC90FF1FF0B52148DE
:1010400085B08E21142204F0F5FE00241E4B1D4FA6
:101050001B680393039B4FF48C704343E01D000215
:1010600080B25843000CFFF71DFAA0F5004086B28D
:101070008F235E43360C630106EB46068DF8043081
:10108000C8238DF8053001A8FF2302A98DF806308A
:1010900004F0C5FFBA5D9DF80830BD199A4238BF0B
:1010A000BB556A789DF809309A4238BF6B70AA78B0
:1010B0009DF80A3001349A4238BFAB70082CC5D174
:1010C00005B0F0BDB08BFF1F0C8EFF1F7FB5224C0B
:1010D0002368DB070CD4204601F0B8FD40B11F4D5A
:1010E0002846FFF729FA32236B60204601F0B4FD51
:1010F0001A481B4CFFF738FA10B1236801332360FC
:10110000184D012228468E2104F094FE164B1748F4
:101110001B680393039B5843000CFFF7C3F9236834
:101120008DF804300646FF238DF8053001A8C02352
:1011300002A9A6F500468DF80630B6B204F06FFF9E
:101140008E207043000C00EB4000284402A9FFF7FA
:101150001FFA04B070BD00BFFC8DFF1F188BFF1F6E
:10116000108BFF1FB08BFF1F0C8EFF1F00380E006F
:10117000F0B5444C85B0FFF77DFA2368D9070CD44D
:10118000204601F063FD40B13F4D2846FFF7D4F9FA
:1011900032236B60204601F05FFD3B48FFF7E4F926
:1011A00020B13A488E21322204F048FE384C2368A0
:1011B000DA070CD4204601F049FD40B1354D2846F0
:1011C000FFF7BAF941236B60204601F045FD314835
:1011D000FFF7CAF920B12D488E21012204F02AFE22
:1011E0002D4C2368DB070CD4204601F02FFD40B1C5
:1011F0002A4D2846FFF7A0F9FA236B60204601F03C
:101200002BFD2648FFF7B0F9002838D0FFF73CF94E
:10121000234D244E2B68244C8D2778430F33070C25
:10122000092101202B60376001F069FB381A20602A
:1012300009210120366801F062FB2368002BB8BF4A
:1012400000233044B8BF2360184E246830608D28D6
:10125000C4BF8D23336033689C4210DA01232A789F
:101260001349009303A8822304F05AFE074804EBB5
:101270004403184403A9FFF78BF90134EBE705B0E9
:10128000F0BD00BFEC8AFF1F2C8AFF1FB08BFF1F31
:10129000F08AFF1F348AFF1FF48AFF1F3C8AFF1F5A
:1012A000BC8AFF1FF889FF1FFC8AFF1FDC8AFF1F13
:1012B000518BFF1F70B53C4C2368D90790B00CD4FC
:1012C000204601F0C3FC40B1384D2846FFF734F901
:1012D0003C236B60204601F0BFFC3448FFF744F923
:1012E00018B1334B1A6801321A603248002350F8A3
:1012F000042F04AD110C5955E9180333140A302B8F
:101300004C708A70F3D12C4B2C4A1B680393039BBF
:101310005A43120ED3B203F0400101F0FF0009B1AD
:10132000DB43DBB203F03F0103F00F0300B10133F5
:101330002348091149004418415C647814FB03F305
:1013400001EB2313DBB2120648BF5B42DBB283F032
:10135000800303EB43039E104036F6B20024144B87
:101360001B78E1B203EB410201EB8101F31A03EBBD
:10137000410301210091D2B22946DBB202A804F058
:10138000CFFD04EB44030F4A9DF808109954134411
:1013900001349DF809205A708E2C9DF80A209A700D
:1013A000DDD110B070BD00BFB88AFF1FE48AFF1FF7
:1013B000108BFF1F946F00000C8EFF1F00D04300A6
:1013C000BC680000B08BFF1F10B5FFF7AFFA002418
:1013D000084B0948E15801F05DFA04340648074912
:1013E000FFF7B4F81C2CF3D10348BDE8104001F01E
:1013F00009BA00BF848BFF1FF48EFF1F906A0000A4
:10140000594B002270B51A60584B594A1E68DD6866
:101410009C69584B1660584A1C60584B1560584AD6
:1014200018681060574AD96811609A69564B1A605B
:10143000564B83F8D350564D83F8D7202A6883F84B
:10144000D44012F0010F83F8D26083F8D50083F8FE
:10145000D6101C460CD1284601F0F8FB40B14D4E89
:101460003046FFF769F80B237360284601F0F4FB60
:101470004848FFF779F820B9474D2B68D9071FD4A2
:1014800011E0424AA2F1D20392F8A61182F8A91102
:10149000033A9A42F8D10023E2180333517991704C
:1014A000D22BF9D1E8E7284601F0D0FB40B13B4E02
:1014B0003046FFF741F81B237360284601F0CCFB50
:1014C0003648FFF751F820B9354D2B68DA071FD49D
:1014D00011E02E4AA2F1D20392F8A51182F8A811C8
:1014E000033A9A42F8D10023E2180333117951707C
:1014F000D22BF9D1E8E7284601F0A8FB40B1294EEC
:101500003046FFF719F834237360284601F0A4FB36
:101510002448FFF729F820B9234C2368DB071FD4A0
:1015200011E01A4AA2F1D20392F8A41182F8A7118D
:10153000033A9A42F8D10022A318DB7813550332FC
:10154000D22AF9D1E8E7204601F080FB40B1174DDF
:101550002846FEF7F1FF02236B60204601F07CFB7A
:101560001248FFF701F870BD048AFF1FB889FF1FFA
:10157000FC89FF1F448BFF1F0089FF1F9C89FF1FF1
:101580000C8AFF1F2889FF1F4C8BFF1FB08BFF1F8A
:10159000A88AFF1FE889FF1F288AFF1F2C89FF1FC9
:1015A0000C8BFF1F3489FF1F148BFF1F3C89FF1F0B
:1015B0002DE9F743FFF75EF83A4B0A221A603A4BDF
:1015C0003A4A1A60FFF7B2F939488E21012204F035
:1015D00031FC37488E21962204F030FC0024354B34
:1015E000354D04EBC4021A602A6812F0010F9946C7
:1015F0000CD1284601F02AFB40B1304E3046FEF7B0
:101600009BFF3C237360284601F026FB2B482C4DA2
:101610002C4EFEF7A9FF18B3FEF736FF4FF08D08EA
:1016200008FB00F0284F4FEA104805210020C7F8BA
:10163000008001F064F9C0EB08002860052100205B
:101640003F6801F05CF92B68002BB8BF00233844D9
:10165000B8BF2B608D28C8BF8D233060C8BF3360F2
:101660002D6833689D4217DA184B1A5DD9F800309F
:101670008DF800306846FF2301A98DF801308DF800
:10168000022004F0CCFC0A4805EB4503184401A9EC
:10169000FEF77EFF0135E4E704341C2C9FD103B034
:1016A000BDE8F083048AFF1F9487FF1F9A99193EB3
:1016B000B08BFF1F108BFF1FC88AFF1FA48BFF1F5B
:1016C000FC8AFF1FDC8AFF1FF889FF1F848BFF1F26
:1016D00013B50446FEF7C6FEA04212D2FEF7D4FEB2
:1016E000FF238DF804308DF805308DF806308E23F9
:1016F0005843000C044B00EB4000184401A9FEF7CE
:1017000047FF02B010BD00BFB08BFF1F38B5134CB0
:101710002368DB070CD4204601F098FA40B1104D45
:101720002846FEF709FF142320466B6001F094FA67
:101730000B48FEF719FF0B4B28B11A68013AFF2A34
:10174000C8BF00221A6008481A788E21012304F0CD
:10175000DFFA5020BDE83840FFF7BABF6C8AFF1FA0
:10176000CC8AFF1F108BFF1FB08BFF1F2DE9F04F9E
:101770000D4685B0AB4280461E460E9C9DF83C103F
:1017800014D292F800C0A378277884F800C092F8A9
:1017900001C0607884F801C092F802C093702B46B3
:1017A00084F802C03546177050701E4694F802C087
:1017B000BCF1000F01D063780BB9137823709078D7
:1017C000237808B1577807B9137094F801B05778A7
:1017D0001478C7EB0B0BC0EB0C0C1B1B02294FEA58
:1017E000CB1B4FEACC1CDBB201D1D90904E00329A1
:1017F00002D11A0603D500E009B9DB0104E05B421F
:10180000DBB2DB015B429BB2721B92B20AB192B2B5
:1018100000E0012212B21BB293FBF2FA9BFBF2FB37
:101820009CFBF2F24FEA4A0A4FEA4B0B52001FFAB6
:101830008AFA1FFA8BFB92B224023F024FEA002978
:10184000B5421BD823128DF80C3005EB45013B1235
:101850008DF80D3003A84FEA2923414401928DF8F9
:101860000E3004F0DCFB019A54445F44914401358E
:10187000A4B2BFB21FFA89F9ADB2E1E705B0BDE885
:10188000F08FFFFF994B9A4A2DE9F04F00251D601C
:10189000984B1A60984B1F221A60984B00221A60CE
:1018A000974A46231360974A1360974A1360974AF2
:1018B00087B013602C46DFF84CA2954ADAF8003066
:1018C000AA58DFF84892DFF834B2924E924FDFF810
:1018D00070829B1A914ACAF8003052F82420D9F835
:1018E00000301344C9F800300435834B002C3FD13D
:1018F000DBF800900393484604F08CF8039B3060BB
:101900001868DFF828A203F0E1FE0146484603F01C
:1019100029FE04F07FF83860C82700972146FF228F
:101920002346DAF80000DFF8089200F0F2FFC8F86A
:10193000000000972146FF222346D9F8000000F05E
:10194000E8FF774B186000972146FF222346DAF81C
:10195000040000F0DEFF734B186000972346D9F8AF
:1019600004002146FF2200F0D4FF6F4B18604AE0CC
:101970003A683260062C18682CD004FB000003F093
:10198000A5FEDBF80010DFF89CA103F0EBFD04F0EE
:1019900041F83860644FDAF80030614AC8F8003026
:1019A0003B6813604FF0C809604BCDF800900021F0
:1019B000E858FF220B4600F0ACFF5D4BCAF8000070
:1019C0000021CDF80090E858FF220B4600F0A1FF5F
:1019D000386018E0C0EBC00003F078FEDBF80010C0
:1019E00003F0C0FD04F016F84E4B38601B68C8F8D1
:1019F00000304D4B1A684A4B1A600023CAF8003079
:101A00008D23C9F8003098F80020DFF80CC18DF85C
:101A10001220444ADFF8E890DFF8E8A03368107835
:101A2000DCF80020B9F800108DF8103005AF4FF049
:101A3000020BBAF800308DF814204FF0FF088DF833
:101A4000160004AA3B480097CDF804B0CDF80CC0AE
:101A50008DF811808DF81580FFF788FE2A4ADDF891
:101A60000CC0118832688DF810202D4B2E4A274E5D
:101A70001B781278DCF800008DF812308DF8140015
:101A800033888DF816208DE8800804AA29488DF83F
:101A900011808DF815800134FFF768FEDAF8003008
:101AA000194AC9F80030072C336813607FF403AF7C
:101AB000214C2368DB070CD4204601F0C7F840B165
:101AC0001E4D2846FEF738FD06236B60204601F0C8
:101AD000C3F81A48FEF748FD20B116488E210122AE
:101AE00004F0A8F907B0BDE8F08F00BF048AFF1F1B
:101AF000295C8F3D9487FF1F9087FF1FE489FF1F9C
:101B0000FC8AFF1FF48DFF1FDC8AFF1F448AFF1F22
:101B10007889FF1F688AFF1FDC89FF1F0489FF1F68
:101B2000748AFF1FE08AFF1FA08BFF1FB889FF1F69
:101B30009C89FF1FB08BFF1F7489FF1FC08AFF1F86
:101B40004889FF1F2DE9F04F87B0FEF793FD5C4AEF
:101B5000DFF8B081462313605A4A13605A4A136073
:101B60005A4A13605A4B0A221A605A4B5A4A1A6050
:101B70005A4B23221A600024FF253223009558F87F
:101B8000040F574F574E1E212A4600F0C2FE564BF7
:101B90001860564B062C18600AD00095D8F804003F
:101BA0001E212A46322300F0B4FE3860306002E085
:101BB00000233B6033604E4BDFF828B11D68474B74
:101BC000DFF804A11F6807FB04F9484603F07EFD17
:101BD0000146284603F0C6FC03F01CFF06464548B4
:101BE000066009EB070003F071FD0146284603F08B
:101BF000B9FC03F00FFF404B344D404ADFF8C4906E
:101C00001060013403EB84032A6853F8041CD9F8EC
:101C100000308DF810600A442A60294A8DF81400BB
:101C20005B1A1188304AC9F8003012788DF81220FA
:101C30004FF0020C9BF800208DF8162005AFFF2610
:101C4000CDF804C02E48009704AA9BB2CDF80CC072
:101C50008DF811608DF81560FFF788FD2548234B3E
:101C600002688DF81020254A1B781068DDF80CC03A
:101C70008DF812309BF800E02B888DF81400BAF82C
:101C800000101F480097CDF804C004AA8DF8116019
:101C90008DF815608DF816E0FFF768FD0848D9F853
:101CA00000300360072C2B68CAF800307FF464AF63
:101CB00013488E21822204F0C1F807B0BDE8F08FEE
:101CC000FC8AFF1FF48DFF1FDC8AFF1F448AFF1F61
:101CD000048AFF1F9487FF1FCDCCCC3D9087FF1F48
:101CE000E08AFF1FA08BFF1F4889FF1F748AFF1F18
:101CF000E489FF1F688AFF1F7889FF1FDC89FF1FA7
:101D0000B08BFF1FB489FF1F464B0A222DE9F04F0D
:101D10001A60454B454A1A60454B464E464FDFF820
:101D2000308122221A60454A002487B034603C602A
:101D300014609B46424A3B6852F8242058F8040F2E
:101D4000DFF810A1DFF8109113440025FF223B605B
:101D500029461346009500F0DCFDDFF8E0C0DBF813
:101D60000030DCF800203749CAF8000003FB0423E8
:101D7000062C0B6030D0FF22294613460095D8F878
:101D80000400CDF80CC000F0C4FD294BDDF80CC0F8
:101D90001B68DCF800502C4AC9F8000004FB033330
:101DA0002B4413609AF800308DF81130FF22224B3B
:101DB0008DF812208DF8162005AAEDB21B8800922E
:101DC00002228DF81500019231888DF810508DF89F
:101DD00014501E4804AA1AE01B49C9F800000B6001
:101DE000FF23C0B28DF812308DF8163005ABD2B299
:101DF0008DF811008DF815000093318813488DF887
:101E0000102002238DF81420019304AA8D2301349D
:101E1000FFF7ACFC3B683360072C8BD107B0BDE803
:101E2000F08F00BF048AFF1F9487FF1FCDCCCC3DED
:101E30009087FF1FF889FF1F4489FF1F108BFF1F2A
:101E40006C87FF1F688AFF1FDC89FF1FB08BFF1F95
:101E5000808BFF1FF88AFF1F5489FF1F484B494A98
:101E60002DE9F04F00251D60474B484E1A60484B46
:101E7000484FDFF83881356022221A60464B3D60BA
:101E800087B01D60454A3B6852F8252058F8040F7A
:101E9000DFF804B1DFF818A1DFF818911344FF242C
:101EA0000A213B6022460B46009400F032FDDFF829
:101EB000E0C0DBF80030DCF80020CAF8000002FBCC
:101EC0000533374A062D136031D00A210B462246CE
:101ED0000094D8F80400CDF80CC000F01AFDDDF82D
:101EE0000CC0DBF80030DCF800209AF800C0C9F81C
:101EF000000005FB02221A442A4B8DF814201A60B8
:101F0000274B8DF81600D3F800E0224B31881B8850
:101F10008DF810E005AA0092022201928DF811407E
:101F20008DF812C08DF815401F4804AA19E01D4A0B
:101F3000C9F800001360DBB2C0B28DF810308DF824
:101F4000143005AB8DF812008DF81600009331881F
:101F500015488DF81140022301938DF8154004AA0D
:101F60008D230135FFF702FC3B683360072D89D1D3
:101F70000D488E21A02203F061FF07B0BDE8F08F6D
:101F8000048AFF1FEC51383E9487FF1FF889FF1F1A
:101F90009087FF1F4489FF1F108BFF1F6C87FF1F57
:101FA000688AFF1FDC89FF1FB08BFF1F808BFF1F1C
:101FB000F88AFF1F5489FF1F454B464A2DE9F04F11
:101FC00000251D60444B454E1A60454B454F1D6032
:101FD000454BDFF828813560C82287B03D601A6024
:101FE000424A3B6852F8252058F8040FDFF8F8B051
:101FF000DFF80CA1DFF80C911344FF2432213B6081
:1020000022460B46009400F084FCDFF8D4C0DBF8D5
:102010000030DCF80020CAF8000002FB0533344A27
:10202000062D136031D032210B4622460094D8F899
:102030000400CDF80CC000F06CFCDDF80CC0DBF83F
:102040000030DCF800209AF800C0C9F8000005FB59
:1020500002221A44274B8DF814201A60244B8DF865
:102060001600D3F800E01F4B31881B888DF810E074
:1020700005AA0092022201928DF811408DF812C03B
:102080008DF815401C4804AA18E08DF81030194B43
:10209000C9F800001B688DF81430C0B205AB8DF88C
:1020A00012008DF816000093318813488DF8114006
:1020B000022301938DF8154004AA8D230135FFF703
:1020C00055FB3B683360072D8AD107B0BDE8F08F20
:1020D000048AFF1F8FC2F53D9487FF1FF889FF1FF9
:1020E0009087FF1F4489FF1F108BFF1F6C87FF1F06
:1020F000688AFF1FDC89FF1FB08BFF1F808BFF1FCB
:10210000F88AFF1F5489FF1F404B414A2DE9F04FC9
:102110000A2119603F4B40491960404D404B414FE7
:102120000024202187B014602C60196090464FF085
:10213000C80ACDF800A0322157F8040FDFF800914B
:10214000394EFF220B4600F0E4FB062CC9F80000D4
:1021500007D0CDF800A032217868FF220B4600F0AE
:10216000D8FB2F4A314B3060D3F800A0136803939B
:1021700003FB04FB584603F0A9FA0146504603F05E
:10218000F1F903F047FC039B2949024608600BEB79
:102190000300039203F09AFA0146504603F0E2F975
:1021A00003F038FC2349244B039A1860013401EBF7
:1021B00084012B6851F8041C8DF81020FF228DF843
:1021C00011208DF8152005AA367899F800E08DF8D1
:1021D00014000B44B8F80010009202222B60019208
:1021E0009BB216488DF812E004AA8DF81660FFF72E
:1021F000BDFA2B68C8F80030072C98D10F488E2103
:10220000012203F017FE07B0BDE8F08F048AFF1F1C
:10221000F889FF1F9487FF1F0AD7A33D4489FF1F3A
:102220009087FF1F808BFF1F5489FF1FE489FF1FCA
:10223000688AFF1F288BFF1FDC89FF1FB08BFF1FE1
:10224000F88AFF1F284B1B6810B5122B40D8DFE817
:1022500003F00A0D0D101316191C1F2225282B2E12
:102260003134373A3D00FFF76DFC31E0FFF7C8F835
:102270002EE0FEF755FD2BE0FFF7F0FD28E0FFF71D
:1022800045FA25E0FFF7FEFA22E0FEF7E1FC1FE049
:10229000FEF734FE1CE0FEF795FD19E0FFF78CFE1B
:1022A00016E0FFF731FD13E0FFF72EFF10E0FFF718
:1022B0008BF80DE0FEF7C2FE0AE0FEF707FF07E02D
:1022C000FEF756FF04E0FFF773F901E0FEF7F2FFB7
:1022D000064C2046217803F065FC20460321BDE82A
:1022E000104003F09FBC00BF9C87FF1FCC90FF1FD6
:1022F00070B50E4C2368DB070DD4204600F0A6FC19
:1023000048B10B4D0B4B28461E68FEF715F92046C9
:102310006E6000F0A1FC0648FEF726F908B1FEF752
:1023200005FBBDE87040FFF78DBF00BF208AFF1F8F
:102330002089FF1F048AFF1F8E4B1A6842F08072AB
:10234000F0B51A608C4B1A6842F001021A6004332F
:1023500000221A60894A1168116821F00401116095
:10236000047C417B611AC9B204684173667816B176
:1023700086FA51F6F6B2C17C01FB0666C6F3072663
:1023800072B61C685A348168002940F3F080C57B1E
:10239000017B691A0173057C417B691A4173457C95
:1023A000817B691A817372B61968A14209D974498F
:1023B0000D6840F6C8512D1B8D4202D962B600202F
:1023C000F0BD1568116845F0040521F004010727E8
:1023D000D3F800C0A445FBD3694C2468156016F0FF
:1023E000800F04F15A0407D0D3F800C0CCEB040CE2
:1023F000BCF1210FF8D806E0D3F800C0CCEB040CF8
:10240000BCF14E0FF8D87600013F1160F6B2DFD173
:102410001F68A742FCD35A4C24681560360604F1A5
:102420005A0404D51E68A61B212EFBD803E01E68A3
:10243000A61B4E2EFBD81160066836781EB1077BAE
:1024400086FA57F6F6B2877C07FB0666C6F30726C0
:102450000727D3F800C0A445FBD3494C2468156076
:1024600016F0800F04F15A0407D0D3F800C0CCEB6B
:10247000040CBCF1210FF8D806E0D3F800C0CCEB77
:10248000040CBCF14E0FF8D87600013F1160F6B293
:10249000DFD11F68A742FCD3394C2468156036068B
:1024A00004F15A0404D51E68A61B212EFBD803E0B4
:1024B0001E68A61B4E2EFBD811600668B6781EB1AA
:1024C000877B86FA57F6F6B2077D07FB0666C6F3EA
:1024D00007260727D3F800C0A445FBD3284C24685F
:1024E000156016F0800F04F15A0407D0D3F800C02D
:1024F000CCEB040CBCF1210FF8D806E0D3F800C0F7
:10250000CCEB040CBCF14E0FF8D87600013F116003
:10251000F6B2DFD1D3F800C0194FA445FAD33C6816
:10252000156016F0800F04F15A043E46134D04D096
:102530003768E71B212FFBD803E03768E71B4E2FD6
:10254000FBD8296090F9155001682944856801601D
:10255000013D85604E781EB1417B86FA51F6F6B298
:10256000C17C01FB0666C6F3072662B60BE762B6BE
:102570001868F0BDFCED00E0001000E0C0F00F4076
:10258000041000E00A7B02734A7B42738A7B8273E9
:10259000CA7BC2730A7C02744A7C42740A68026075
:1025A0008A7C8274CA7CC2740A7D02754A7D427537
:1025B0004A68426082608A698261704730B5044629
:1025C00089B00D4600F0FAFB238CC01A83B2312B80
:1025D000F8D901A82946FFF7D5FF01A8FFF7ACFEFF
:1025E00068B962B64FF49663013B7FF4FDAF72B6F3
:1025F00001A82946FFF7C6FF01A8FFF79DFE00F0DE
:10260000DDFB208409B030BD002383617047FFFFEC
:1026100010B5184B1A78013202F0070212F0010FC0
:102620001A7014BF80230023910744BF43F0400376
:10263000DBB2520748BF43F020031033DCB2002264
:10264000837C2BB14FF4807191FBF3F30133DBB248
:1026500003FB0441C1F30721C37301B101390173C5
:102660000BB1013BC3730132032A00F10100E7D132
:1026700010BD00BFD488FF1F30B589B01546827CDD
:10268000019119788DF81610012A59789B780295D6
:10269000044603958DF817108DF8183003D101A862
:1026A000FFF7B6FF0CE000238DF815308DF81430DD
:1026B0008DF813308DF812308DF811308DF8103000
:1026C000002301A829468DF81930FFF79DFF2368E4
:1026D00020469B6901A9984709B030BD30B589B043
:1026E0001546827C019119788DF81610012A5978C7
:1026F0009B780295044603958DF817108DF81830D5
:1027000003D101A8FFF784FF0CE000238DF81530FA
:102710008DF814308DF813308DF812308DF811309B
:102720008DF81030032301A829468DF81930FFF7E2
:102730006BFF236820469B6901A9984709B030BD0B
:10274000244B13B5186802F0C1FF2349044603F077
:1027500011F80146204602F003FF03F05BF91F4B1E
:1027600018601F4B1C605C609C60DC601C615C61DD
:102770009C611C4B186802F0A9FF4FF07C51044685
:1027800002F0F8FF02F094FD03F03AFF02F06CFE55
:10279000154B214618604FF07E5003F09FF8134B05
:1027A0001860134B1868014602F0DCFE114B01AAB9
:1027B00018601021002310488DF804308DF8053082
:1027C0008DF8063003F092FA0C490D48FDF7F1FE42
:1027D00002B010BDA087FF1F9A99193ED889FF1F2C
:1027E0005889FF1F6887FF1F008BFF1F5089FF1F3D
:1027F0008887FF1F4C89FF1F518BFF1F0E6B000046
:10280000788AFF1F07B5064B1B88ADF804300368B4
:1028100001A95B680222984703B05DF804FB00BF82
:10282000BC6C000070B505468AB022B90368C9B215
:102830001B6898472CE0012A08BF0A2221B93022E0
:102840008DF82520212413E02124B1FBF2F002FBB6
:102850001011C9B209290AAE94BF3031373126446C
:10286000C9B206F8241C014610B1013CE4B2ECE701
:1028700033B1013CE4B20AAB23442D2203F8242CEB
:102880002B6801A95B6828462144C4F122029847BD
:102890000AB070BD0029BABF49422D2300230A2285
:1028A000FFF7C0BF0C4A0D48136811460C4A002BB5
:1028B00008BF134693FBF0F200FB12330948424372
:1028C00044F2A71000FB03200028BCBF00F1004029
:1028D00000F1FF3008607047008EFF1F1DF30100FC
:1028E00024D95B07ECF4FFFF10B5044630B1FFF7C5
:1028F000D9FFB0FBF4F303FB140010BD10BD8842F8
:1029000010B5044604DA081AFFF7EEFF204410BDA4
:1029100010BD10B5029C401AE41A4443521A94FBAD
:10292000F2F0184410BDFFFFF0B5304B1B681B06DA
:10293000FBD42F4B1B6813F08002F6D172B62D4BDF
:102940001978002950D02C4908684F688E68CD68E6
:102950000C69384414313044096828442044084440
:10296000C0F34E00254940F400400860C86A0F6B70
:102970004E6B8D6BCC6B3844403130440968284431
:1029800020440844C0F34E001D4940F40040086054
:1029900001F10811143151F8140C51F8107C51F860
:1029A0000C6C51F8085C51F8044C09683844304408
:1029B000284420440844C0F34E00124940F400402B
:1029C0000860C86A0F6B4E6B8D6BCC6B384440311E
:1029D00030440968284420440844C0F34E000A49A2
:1029E00040F4004008601A7062B6F0BD24B00340A5
:1029F00024B00B40058EFF1F38B003402CB00340BD
:102A000030B003402CB00B4030B00B4010B5204B21
:102A10002048214960221A70E1225A701F4B204A37
:102A20001C78204B082C01D1012402E00A2C03D190
:102A300019240460132005E00C2C0CBF15243D2440
:102A400004601220086014601860174B17491B7847
:102A5000174A03B101230B601360164B164A19780D
:102A6000164B012901D880210BE0042901D88421CB
:102A700007E0082901D8852103E0102994BF8621A9
:102A80008721116019600E4B01221A7010BD00BF22
:102A90000040074008B003400CB00340A487FF1F6C
:102AA00008B00B400CB00B40088EFF1F20B0034055
:102AB00020B00B40A587FF1F24B0034024B00B407B
:102AC000058EFF1F0E4B1A7860B1BAB9012119703B
:102AD0000C4B1B7823B10C4B1A6003F500231A60D2
:102AE000FFF794BF52B11870064B1B78002BF7D03C
:102AF000054B186003F500231860F1E7704700BF2D
:102B0000088EFF1F058EFF1F24B00340282838B50C
:102B100047D8254B1C5CFF2C43D0244B1B780BB1B2
:102B2000FFF702FF210614D472B6214B214D1C6021
:102B300001232B7062B672B61D4B1B681A0601D5B5
:102B40001D4B1FE02B78002BEFD062B600F054FF36
:102B5000F1E772B6194B1A4D1A6814F0400F14BF02
:102B600022F0100242F010021A60164B04F03F02ED
:102B70001A6001232B7062B672B6124B1B681B06DB
:102B800008D5114B186800232B7062B60F4B1B78C9
:102B9000184138BD2B78002BDCD062B600F02CFF3A
:102BA000EAE7002038BD00BFBE6C0000058EFF1FA5
:102BB00000B00340078EFF1F10B003400CB00B4065
:102BC000068EFF1F00B00B4010B00B40048EFF1F9D
:102BD00008B5FDF7A0FEFFF78BFB00F00DFFFAE74D
:102BE000024B1A6801321A60704700BF0C8EFF1F3B
:102BF00008B50B4C2368580301D500F02FFA236861
:102C0000590501D501F072FB23681A0501D501F0C1
:102C1000CBFE2368DB04ECD502F046F9E9E700BF00
:102C20003480044008B5FFF7E3FFFFFF014B10229B
:102C30001A807047002005407047FFFF024A136862
:102C40001844106018467047A887FF1F0078D0F11D
:102C5000010038BF00207047012303707047FFFF59
:102C6000EFF313839BB9EFF3108098B9EFF305836B
:102C700023B10F2B04D9084A985C01E04FF480700F
:102C8000EFF311833BB1834238BF184670474FF0D2
:102C9000FF30704718467047F0E300E003F066BD70
:102CA00010B50023B0FBF2F402FB1400092894BF16
:102CB00030303730C0B2C85420460CB10133F1E790
:102CC000CA18547022469A4206DA885CCC5C8C544E
:102CD000C8540132013BF6E7084610BD044B0549D4
:102CE00000221A600A60044A106010221A607047BD
:102CF00014D0034004D0034000D00340212810B575
:102D000018D80D4A52F8303093F880423CB1012275
:102D100011B183F8802010BD83F8002110BD02EBB3
:102D2000C00043681A6811B142F0030201E022F0CA
:102D300002021A6010BD00BFE86C0000212806D80E
:102D4000044B53F8303093F80002C0B270470020B3
:102D5000704700BFE86C0000212810B52BD8164A38
:102D600002EBC00301295B68144601D004290FD18E
:102D700054F83020012082F880024FF4A2721A60C9
:102D80001A6804290CBF42F0200222F0200211E050
:102D900052F83000002280F8802211B94FF480727E
:102DA00008E0022902D140F2031203E0032908BF20
:102DB0004FF481721A6010BDE86C000072B60C4BC3
:102DC0000C491A680C4B1B68096862B6490102D5A8
:102DD000322A88BF0133C2F58C32482102F23F12F9
:102DE000B2FBF1F24FF47A7000FB0320704700BF92
:102DF00018E000E004ED00E00C8EFF1F38B504463B
:102E0000FFF7DCFF054624B938BD013C0AD005F5C3
:102E10007A75FFF7D3FF401BB0F57A7FF5D200F04B
:102E2000EBFDF6E738BDFFFF204B4FF4000210B575
:102E30001A604FF080721A604FF000721A604FF003
:102E400080621A604FF000621A60194B194A1A4CDE
:102E5000002048F6FF7118605960282313609360C2
:102E60001361936113629362136393630922226077
:102E700004F58054043420606160A360236144F849
:102E8000042C04F5FE2420600C4801600C490B6002
:102E90008B600C4B1A60FFF7B9FD4FF4C870FFF759
:102EA000ADFFBDE8104000F0D7BB00BF08E100E077
:102EB000048003400C8003400080034008800B40E6
:102EC0000C800B4000800B40F0B50C4B0C4C1A787A
:102ED00042F0020504EBC50682F001027060094869
:102EE0001A700678002E0CBF8827C82786F00106C6
:102EF00047EA0141067044F83510F0BD788EFF1F97
:102F00000080FF1FF08EFF1F431E032B10B510D84B
:102F100072B6094A52F8230048B1416842F82310BA
:102F2000064A018832F81340611A22F8131062B67B
:102F300010BD002010BD00BF688EFF1FF890FF1F5E
:102F4000013803280AD872B6054B53F82030002008
:102F500013B101305B68FBE762B670470020704731
:102F6000BC8EFF1F10B572B60123174A1A4412F81F
:102F7000012C12071CD59900144A52F831402CB983
:102F800002EB431308305860114B09E041F0010196
:102F900052F8314064B902EBC103083058600D4B60
:102FA00042F831300C4B1A78013A1A7062B610BDF3
:102FB0000133052BD9D162B6074B00221A70BDE848
:102FC000104000F0C7BB00BF406F00000080FF1F33
:102FD00088004000C8004000E68EFF1F431E032B00
:102FE00030B532D8194A400140F01000104472B692
:102FF000174CE25C032A09D8DFE802F01602180534
:103000000830022213E00830042210E01148124A6E
:1030100050F8234014B940F8231002E052F823007E
:10302000416042F823100FE0032200E00522E25441
:1030300010F0080F01F108030A8843600CBF8823D1
:10304000C82343EA0243036062B630BD0080FF1F1D
:10305000248EFF1FBC8EFF1FCC8EFF1F2DE9F84F63
:10306000AB4F3C78E4B214F0040F3D4619D0A94BA5
:103070001B78A3B1A84A117801F0FF0321B1013BED
:10308000DBB2137003B900BEA44A117801F0FF034C
:1030900029B1013BDBB213700BB900F089FC0423AA
:1030A0003B7004F0080303F0FF02002B00F067827E
:1030B0009B4B9C4C1A78D2B215094FEA920840F00B
:1030C000E48104EBC803596854F83830C3F3830330
:1030D000013B0C2B00F2D681DFE813F0950195013E
:1030E000D401D401D401D401D401D401B001D4015C
:1030F000D401D4010D008C4D0A684B688B486B607D
:1031000001218B4B44F838302A60DFF8508201707F
:1031100092B240F2816000238242C8F800302361FD
:10312000A36117D8B2F5D06F80F01E81B2F5817F10
:1031300000F0CF8006D8802A00F0BA80822A00F002
:10314000BB8031E140F202339A4200F0D180B2F507
:10315000A06F1CE042F22100824200F051810ED8A3
:10316000B2F5086F00F09E80B2F5106F40F01C8140
:10317000684B6C4EAA781A7006F180090AE042F298
:1031800021218A4200F0088142F221339A4200F064
:103190000F8109E1336A1B0603D5706A083800F015
:1031A000D9FA08364E45F5D10026B146DFF8B0A170
:1031B00056F80A0028B1D0F804B000F0CBFA58460F
:1031C000F8E74AF806005B4BDFF898A1F05056F894
:1031D0000A0028B1D0F804B000F0BCFA5846F8E76D
:1031E000554B4AF80600F050544B23F81900544B45
:1031F00019F80320023A032A08D8DFE802F0020493
:103200000204002200E0012203F8092009F101096B
:10321000B9F1040F06F10406C8D14A4B00221A7016
:1032200001269A46484A494B3244334412F8012C4D
:103230009B0012F0080F1A704FEA860925D000F0A3
:103240006BFA38B104EB461308305860404B44F831
:10325000393006E09AF8003044F8390001338AF832
:10326000003000F059FA49F0010338B104EBC30211
:10327000083050602E4A44F8332006E044F833000A
:103280009AF8003001338AF8003049F00202013622
:1032900049F003090023052E44F8323044F8393050
:1032A000C0D186E01B4B2B4C1B7823700B4683E070
:1032B000284C237063707EE0AA88042A74D8254CB9
:1032C000920023706370244B9B5C9E0773D5217022
:1032D00071E0AA8802F07F02042A65DC6B88002B6B
:1032E00062D191001C4A0A44117821F0020159E090
:1032F000AA8802F07F02042A56DC6B88002B53D187
:103300009100154A0A44117841F002014AE000BFD9
:1033100080200740EF8EFF1F798EFF1F048FFF1F55
:10332000902007400080FF1FDC8EFF1FF08EFF1FE4
:10333000C8004000148EFF1FCC8EFF1FF890FF1FA7
:10334000248EFF1FE68EFF1F406F000030C8011063
:1033500088004000E78EFF1FC0200740108EFF1F2F
:10336000688EFF1FBC8EFF1F6A88A9889F4B53F889
:10337000084CA3F10C00BCB133F80C6C964209D197
:1033800033F80A6C8E4205D1120A032A0CBF237847
:10339000038911E00C33EAE7954A1168954A1160F8
:1033A000A978954A117004E0944B0F221A7027E017
:1033B00000231C4600E00223EE88B34238BF1E46BD
:1033C000402E34BF3546402520462946FFF77CFD78
:1033D000761B2C4403D1402D12D1354603E0402EFC
:1033E00034BF3546402520462946FFF76DFD761B44
:1033F0002C4401D1402D03D1814AC8F800401680E9
:103400000122804B3DE0804B1A8842F221039A4210
:1034100010D100237D4AC85C98540133072BF9D1A1
:103420001368862B02D17A4B0F221A7000200146B6
:10343000FFF74AFD774B44F8383023E0764E356885
:10344000B5B1DFF8BC81B8F80090B9F1400F34BFD6
:103450004C46402428462146FFF736FDC4EB0903BD
:103460009BB2A8F800300BB9402C00D12B19336067
:10347000654B1A88B2F5A06F04D100225A709A7871
:10348000664B1A7001225F4B6CE004EBC806013DED
:10349000736802F00802A3F10800EDB202F0FF0128
:1034A000002A36D000F056F95D485E4B50F82520D2
:1034B000EAB1516840F8251002F108017160595DC8
:1034C00003290BD8DFE801F002040608032104E019
:1034D000022102E0052100E00421595516F0080FF1
:1034E00012880CBF8823C82343EA024342E05A5D96
:1034F000032A07D8DFE802F040400204002206E079
:10350000012204E016F0080F0CBF022203225A55D4
:1035100032E054F83820120C23F8082C22B3DFF8DC
:1035200034E123F8061C43F8041C5EF825303E49BC
:1035300013B94EF8250002E051F8253058603B4B96
:1035400041F8250033F815100A4423F8152000F03F
:10355000E3F810B10830706006E0354B44F83800ED
:103560001A7801321A7007E02A4B324A16F0080F17
:1035700008BF134644F8383008233B7070E5E00775
:103580001FD520492B482C4C02230B702B4B1A7053
:103590002B4B186098602B48D8601A619A615C6068
:1035A000164B0D2018702848FF2303702B700274EF
:1035B000264A1370264B9F221A7001230B70BDE818
:1035C000F88F210604D50D4B0D221A7080232B7025
:1035D000A20705D51C4B1A78D2B21A7002232B70A1
:1035E000E30644BF10232B70BDE8F88F506F000036
:1035F0000C8EFF1F0891FF1F148FFF1FC020074074
:10360000E48EFF1F94200740DC8EFF1F0091FF1FF8
:10361000798EFF1FC8004000108EFF1F98200740C2
:10362000BC8EFF1F248EFF1F148EFF1FF890FF1FFC
:10363000E68EFF1F88004000288EFF1F788EFF1F38
:103640000080FF1F7C8EFF1F882007408C200740D2
:1036500084200740688EFF1F08B501F08DFC002212
:103660001A4B0021D15098180832882A4160F7D1AE
:10367000174A106840F48020106002F52832683242
:10368000C3F307201070C3F307401B0E10751376A9
:10369000FF2302F81C3C02F8143C02F88C3C012386
:1036A00002F8083C82F8641002F8183C094B7022BA
:1036B0006FF450711A700B444FF400721A6003F1EA
:1036C000C04303F5C82310221A7008BD0080FF1FF5
:1036D0003480044049E400E000F0A0B800F05CB899
:1036E00000F080B800F036B900F0A6B8084600F047
:1036F00025B90846114600F0B7B87047044B0022C0
:103700001A714FF47A711A73024A99601A607047FD
:10371000F48EFF1F006E000072B60C4A1168B1FAF9
:1037200081F30B2B02D962B6002070474FF00040A6
:10373000D84021EA0001116062B60549482253438E
:10374000C8180022CA504260704700BFAC87FF1FF4
:103750000084FF1F0C4B4822C31AB3FBF2F30B2B60
:1037600011D80A4A127822B1094A12780AB1FFF731
:10377000F9BB72B6074A4FF0004121FA03F3116812
:103780001943116062B670470084FF1FE68EFF1F69
:10379000EF8EFF1FAC87FF1F10B5104C23686BB175
:1037A00020684288531C0244147A0288934212D340
:1037B000FFF7D0FF094B00221A600DE0084B1B7881
:1037C00013B94FF0FF3010BD0320FFF79DFB2060C1
:1037D0000028E5D1F5E74380204610BD108FFF1F7C
:1037E000EF8EFF1F10B50B4C236813B123686BB924
:1037F00002E0094B1B7813B94FF0FF3010BD0320D6
:10380000FFF782FB20600028F0D1F5E75A881344C7
:10381000187A10BD108FFF1FEF8EFF1F044B988882
:10382000044B1B681BB11A885B88D31A1844704775
:10383000F890FF1F108FFF1F10B5094B1B786BB15D
:10384000084C206818B1FFF785FF00232360032090
:10385000FFF75AFB10B1FFF77DFFF8E710BD00BF7F
:10386000EF8EFF1F108FFF1F2DE9F0472E4E012313
:103870000746894633700C46002C50D02B4D2B68E0
:10388000AA462BBB48F60148294B1B7803F0FF02E0
:103890000BB9327015E00420FFF752FB072808D857
:1038A00001233370FFF738FFCAF8000080B91E4BC0
:1038B0001870B8F101081F4B01D01A782AB1012203
:1038C0001A704FF0FF30BDE8F08700F095F8DBE7A5
:1038D000184B00221A702B685888C0F140018C42A6
:1038E00038BF214600F1080C08449C445880641AF3
:1038F0008A4204D0B85C0CF802000132F8E71744A1
:103900005A883F2A07D940221A8019460420FFF717
:1039100065FB00232B60084B05221A70ACE734705E
:103920004846BDE8F08700BF058FFF1F088FFF1FC7
:10393000EF8EFF1F0C8FFF1F048FFF1F07B502AB19
:10394000012103F8010D1846FFF78EFF03B05DF863
:1039500004FBFFFF2DE9F041114B1B78F3B1114E31
:10396000114B3468114D01271F7098464CB1002748
:1039700063882F70042023802146FFF72FFB3760D8
:1039800009E0FFF7C9FE014620B104202C70FFF7C3
:1039900025FB00E02F70002388F80030BDE8F0819F
:1039A000EF8EFF1F088FFF1F058FFF1F048FFF1F64
:1039B00038B50E4B1B7803F0FF05ABB90C4C2168F2
:1039C00031B14B880B800420FFF708FB256038BD20
:1039D000FFF7A2FE014620B10420BDE83840FFF702
:1039E000FDBA044B01221A7038BD00BF058FFF1FBE
:1039F000088FFF1F048FFF1F10B50E4C2378BBB933
:103A000001232370FFF70AFF08B1FFF776FE00F0ED
:103A1000F7FB08B100F08AF800F050FF08B100F0A1
:103A20000FF901F0DDF908B100F094F900232370DB
:103A300010BD00BF158FFF1F08B50368C9B21B6812
:103A4000984708BD08B50368C9B21B68984708BD08
:103A500008B50368C9B21B68984708BD08B5036874
:103A6000C9B21B68984708BD034800EB5100B0FB82
:103A7000F1F000F07FB900BF0044950810B506488A
:103A800000EB51001446B0FBF1F000F073F9204652
:103A9000BDE8104000F0D2B90044950800F0F8B934
:103AA000084600F029BA084600F078BA08461146E0
:103AB00000F03EBA08B5084600F096FA003018BF8C
:103AC000012008BD08B5084600F0B0FA003018BF64
:103AD000012008BD00F094BB00F0CCBB00F0A0BBFF
:103AE00000F072BB00F0DEBB00F078BB08B5084602
:103AF00000F0C2FA012008BD08B5084600F0BCFA83
:103B0000012008BD10B508461446114600F0FEFA23
:103B1000204610BD38B508460D4602F093FE044617
:103B20002146284600F0F2FA204638BD7047FFFFD4
:103B3000044B00221A714FF47A711A73024A996089
:103B40001A607047188FFF1F286E000008B50368C1
:103B5000C9B21B68984708BD08B50368C9B21B689D
:103B6000984708BD08B50368C9B21B68984708BDE7
:103B700008B50368C9B21B68984708BD034800EB45
:103B80005100B0FBF1F000F035BC00BF00449508D7
:103B900010B5064800EB51001446B0FBF1F000F000
:103BA00029FC2046BDE8104000F088BC0044950880
:103BB00000F0AEBC084600F003BD084600F052BD60
:103BC0000846114600F018BD08B5084600F072FD21
:103BD000003018BF012008BD08B5084600F08CFD74
:103BE000003018BF012008BD00F068BE00F0A0BE84
:103BF00000F074BE00F046BE00F0B2BE00F04CBE55
:103C000008B5084600F096FD012008BD08B5084635
:103C100000F090FD012008BD10B50846144611467D
:103C200000F0D2FD204610BD38B508460D4602F022
:103C300009FE04462146284600F0C6FD204638BD50
:103C40007047FFFF044B00221A714FF47A711A7308
:103C5000024A99601A607047288FFF1F886E000023
:103C600008B50368C9B21B68984708BD08B5036862
:103C7000C9B21B68984708BD08B50368C9B21B687C
:103C8000984708BD08B50368C9B21B68984708BDC6
:103C9000034800EB5100B0FBF1F000F009BF00BF9A
:103CA00000A24A0410B5064800EB51001446B0FBD0
:103CB000F1F000F0FDFE2046BDE8104000F03ABFF4
:103CC00000A24A0400F060BF084600F091BF084619
:103CD00000F0D2BF0846114600F0A6BF08B508465E
:103CE00000F0CCFF003018BF012008BD08B5084621
:103CF00000F0E6FF003018BF012008BD01F070B8E9
:103D000001F0A8B801F07CB801F04EB801F0BAB8E3
:103D100001F054B808B5084600F0F0FF012008BDD6
:103D200008B5084600F0EAFF012008BD10B50846B6
:103D30001446114601F02CF8204610BD38B508464F
:103D40000D4602F07FFD04462146284601F020F88A
:103D5000204638BD7047FFFF044B00221A714FF414
:103D60007A711A73024A99601A607047388FFF1F80
:103D7000E86E0000234B1A6842F480621A60224AFF
:103D800000231370214A1370214A1370214A1370C3
:103D9000214A1370214B1B782BB1152B07D140F210
:103DA00013321F4B02E01F4B40F213321A601E4BBE
:103DB0001B78012B05D0052B07D14FF451721B4BFB
:103DC00002E01B4B4FF451721A601A4BC0F344329D
:103DD0001A70C0F347125A700221042200F01F002B
:103DE00098729A70D9745A7588221A743C22DA70C3
:103DF000114B40226FF44A711A700B444FF4005279
:103E00001A60704734800440CF8FFF1F4D8FFF1F13
:103E1000D88FFF1FD08FFF1F4C8FFF1F8E8FFF1F6C
:103E200018C0044040A00440B087FF1F1CC00440DD
:103E300044A0044000A006402DE400E0134A93781B
:103E400000F0030103F0EC030B43410748BF43F0CC
:103E50001003937000F00F03042B0C4903D18B79EE
:103E600043F040038B715379C20603F0EF03074A16
:103E700048BF43F0100353719379810603F0EF03B9
:103E800048BF43F010039371704700BF00A0064085
:103E900008B5114B1B685B0500D408BD0F4B1A78A1
:103EA00002F0FF0312B1FFF7A7FDF7E70C4A4FF44A
:103EB000005111600B4A0C49D37040F203120A60A2
:103EC0004A600A4A13700A4A13700A4B1B680BB106
:103ED00001221A7008BD00BF348004404C8FFF1FC0
:103EE00084E100E000A0064040A00440CF8FFF1F07
:103EF0004D8FFF1F488FFF1F38B50446094B1B78B5
:103F000003F0FF05002BF9D120460121FEF724FF25
:103F100020462946FEF7F2FE034B53F83420034BAC
:103F20001A6038BD4C8FFF1FE86C0000D48FFF1F54
:103F300010B509B140F08000144A13789842144635
:103F400022D0134A126852051DD503F07F03012BBE
:103F500004D0052B05D100220E4B01E00E4B0022B0
:103F60001A60002900F07F020CBF44236023012A5D
:103F700005D0052A07D143F44073064A02E0064AF9
:103F800043F440731360207010BD00BFB087FF1F63
:103F9000348004401CC0044044A004400E4A1378FE
:103FA000984218D00D490968490513D52BB1152B36
:103FB00005D10B4B0021196001E00A490B6028B1C3
:103FC000152807D140F21331054B02E0054B40F2B2
:103FD00013311960107070478E8FFF1F34800440BA
:103FE00018C0044040A004400D4A38B5146814F4C9
:103FF00080624FF0000410D021280A4D0AD80A4AE6
:10400000012152F830302B60FEF7A6FE2B681C70A1
:10401000012038BD2C60204638BD104638BD00BF99
:1040200034800440488FFF1FE86C00000E4B1B6873
:1040300013F4806316D012280C4B03D140F20231E6
:104040000B4A04E0142809D10A4A40F202311160F7
:104050005A7B42F001025A73012070475A7B02F0EA
:10406000FE025A73002070473480044000A00640CE
:104070000CA0044014C00440F8B51D4B1B685A0541
:10408000064633D51B4B1B680BB101221A701A4B25
:104090001C780134402C1F4628BF0024174D2B7874
:1040A000A34218D1FEF7DCFD40280FDC144A137937
:1040B0001B06F3D52B7813490133402B28BF00236F
:1040C000C95CDBB2C9B2D1712B70E7E7FF28E5DD2F
:1040D000FFF792FCE2E70B4BF6B21E550A4B0122AA
:1040E0001A70074BE4B2BC223C70DA70F8BD00BF16
:1040F00034800440D48FFF1FD88FFF1FD08FFF1F45
:1041000000A006404E8FFF1F4C8FFF1F274B1B68E0
:104110005A052DE9F04707468A4644D5244B1B68CB
:104120000BB101221A703D4607EB0A039D4237D2BC
:10413000DFF890801F4E98F8004096F80090013408
:10414000402C28BF00245FFA89F9A1451DD11A4BE4
:10415000BC22DA70FEF784FD40280FDC164A137982
:104160001B060FD5337815490133402B28BF002398
:10417000C95CDBB2C9B2D171337003E0FF2801DD45
:10418000FFF73AFC33784B45E4D00C4B15F8012B84
:104190001A550B4B0122E4B21A7088F80040C3E7AD
:1041A000054BBC22DA70BDE8F08700BF34800440C4
:1041B000D48FFF1FD08FFF1F00A006404E8FFF1F20
:1041C0004C8FFF1FD88FFF1F08B5034B1B7813B10F
:1041D000FFF712FCF9E708BD4C8FFF1F064A074B9B
:1041E0001B781078DBB2C0B283422CBF3F3000F1A5
:1041F000FF30C01A704700BFD08FFF1FD88FFF1F3E
:10420000054B1878054B1B78C0B2DBB2984238BF1B
:104210004030C01A704700BFCF8FFF1F4D8FFF1F68
:1042200010B5104B10491A780B78D2B2DBB29A4213
:1042300014D00133402B28BF00230C48DCB2C05CF3
:104240000C700B490968C0B251B19A4238BF403274
:10425000D31A1A2B04DC00230B7010BD4FF0FF3073
:1042600010BD00BFCF8FFF1F4D8FFF1F8F8FFF1F10
:10427000488FFF1F084B1A78084B1B78DBB29A4215
:1042800007D00133402B28BF0023054AD05CC0B2C1
:1042900070474FF0FF307047CF8FFF1F4D8FFF1FCC
:1042A0008F8FFF1F0C4B1B685B0514D50B4BDA7807
:1042B00002F0CB02DA7040225A74DA7842F034020B
:1042C000DA70074B1A78074BD2B21A70064B1B688C
:1042D0000BB100221A7070473480044000A00640E1
:1042E0004D8FFF1FCF8FFF1F488FFF1F30B5374BFC
:1042F0001A7912F0300F31D072B69A7D02F0FF00B9
:1043000022B9DA7940225A7462B627E062B6304A9E
:10431000304913780978DBB2C9B214462B4AD579F3
:104320005A1C402A28BF00228A42EDB202D02A4BF2
:104330009D541346421E12F0FF00EFD1DAB22270F4
:10434000264A126852B18B4236BFC1F14001C1EB1F
:1043500003035B18272BC4BF012313701B4BD978B1
:10436000C9B20C0620D51B7918061DD51C4B1D4A59
:104370001D781378EDB2DBB21046AB420CD0134A75
:104380000133402B1479184C28BF0023E45CE4B2BD
:10439000D471127D072AF0D9DBB203700B4B1A7966
:1043A000120644BF7C22DA704B060ED5074B1A79F1
:1043B00012F0400F194608D00C4B00221A700C4B1B
:1043C0001B6803B11A703C23CB7030BD00A00640BF
:1043D000CF8FFF1F4D8FFF1F8F8FFF1F488FFF1F36
:1043E000D88FFF1FD08FFF1F4E8FFF1F4C8FFF1FD7
:1043F000D48FFF1F234B1A6842F400621A60224ACE
:1044000000231370214A1370214A1370214A13703C
:10441000214A1370214B1B78092B05D01A2B07D189
:1044200040F213321E4B02E01E4B40F213321A6070
:104430001D4B1B780A2B05D01F2B07D14FF451724F
:104440001A4B02E01A4B4FF451721A60194BC0F329
:1044500044321A70C0F347125A7000F01F00042251
:10446000022198729A70D9745A7588221A743C2263
:10447000DA70114B40221A70A3F22B334FF4004232
:104480001A607047348004404A90FF1FE18FFF1F7D
:104490005090FF1F4B90FF1FE08FFF1FB187FF1F42
:1044A00004D004400CB00440B287FF1F00D0044089
:1044B00010B0044000B006402FE400E0134A9378A7
:1044C00000F0030103F0EC030B43410748BF43F046
:1044D0001003937000F00F03042B0C4903D18B7968
:1044E00043F040038B715379C20603F0EF03074A90
:1044F00048BF43F0100353719379810603F0EF0333
:1045000048BF43F010039371704700BF00B00640EE
:1045100008B51E4B1B681B0500D408BD1C4B1B783F
:1045200003F0FF0213B1FFF767FAF7E7194B4FF4F7
:1045300000411960184BDA70184B1B78092B05D015
:104540001A2B07D140F20312154B02E0154B40F233
:1045500003121A60144B1B7803F07F030A2B05D05B
:104560001F2B07D140F20312104B02E0104B40F218
:1045700003121A600F4A002313700F4A13700F4B77
:104580001B680BB101221A7008BD00BF34800440C3
:10459000E08FFF1F84E100E000B00640B187FF1FFD
:1045A00004D004400CB00440B287FF1F00D0044088
:1045B00010B004404A90FF1FE18FFF1FDC8FFF1FE8
:1045C00038B50446094B1B7803F0FF05002BF9D1E1
:1045D00020460121FEF7C0FB20462946FEF78EFB50
:1045E000034B53F83420034B1A6038BDE08FFF1F94
:1045F000E86C00004C90FF1F10B509B140F080003E
:10460000144A13789842144622D0134A12681205AD
:104610001DD503F07F030A2B04D01F2B05D10022E8
:104620000E4B01E00E4B00221A60002900F07F02C1
:104630000CBF442360230A2A05D01F2A07D143F464
:104640004073064A02E0064A43F440731360207048
:1046500010BD00BFB287FF1F3480044000D004406B
:1046600010B004400F4A137898421AD00E490968D6
:10467000090515D5092B04D01A2B05D100210B4BA8
:1046800001E00B4B00211960092805D01A2807D139
:1046900040F21331054B02E0054B40F21331196033
:1046A00010707047B187FF1F3480044004D004406D
:1046B0000CB004400D4A38B5146814F400624FF091
:1046C000000410D021280A4D0AD80A4A012152F8C4
:1046D00030302B60FEF740FB2B681C70012038BD8A
:1046E0002C60204638BD104638BD00BF34800440E1
:1046F000DC8FFF1FE86C00000B4B1B6813F400639A
:1047000010D01728094B09D1094A40F20231116033
:104710005A7B42F001025A73012070475A7B02F023
:10472000FE025A73002070473480044000B00640F7
:1047300008B00440F8B51D4B1B681A05064633D572
:104740001B4B1B680BB101221A701A4B1C780134E9
:10475000282C1F4628BF0024174D2B78A34218D1C0
:10476000FEF77EFA40280FDC144A13791B06F3D5B6
:104770002B7813490133282B28BF0023C95CDBB2F7
:10478000C9B2D1712B70E7E7FF28E5DDFFF734F9F7
:10479000E2E70B4BF6B21E550A4B01221A70074B8B
:1047A000E4B2BC223C70DA70F8BD00BF3480044033
:1047B0004C90FF1F5090FF1F4B90FF1F00B0064012
:1047C000E28FFF1FE08FFF1F274B1B681A052DE9A3
:1047D000F04707468A4644D5244B1B680BB101229B
:1047E0001A703D4607EB0A039D4237D2DFF89080EE
:1047F0001F4E98F8004096F800900134282C28BFEE
:1048000000245FFA89F9A1451DD11A4BBC22DA7048
:10481000FEF726FA40280FDC164A13791B060FD53F
:10482000337815490133282B28BF0023C95CDBB23C
:10483000C9B2D171337003E0FF2801DDFFF7DCF866
:1048400033784B45E4D00C4B15F8012B1A550B4B24
:104850000122E4B21A7088F80040C3E7054BBC227D
:10486000DA70BDE8F08700BF348004404C90FF1F31
:104870004B90FF1F00B00640E28FFF1FE08FFF1F2D
:104880005090FF1F08B5034B1B7813B1FFF7B4F826
:10489000F9E708BDE08FFF1F064A074B1B78107829
:1048A000DBB2C0B283422CBF273000F1FF30C01A08
:1048B000704700BF4B90FF1F5090FF1F054B1878AB
:1048C000054B1B78C0B2DBB2984238BF4030C01AEB
:1048D000704700BF4A90FF1FE18FFF1F10B5104BBC
:1048E00010491A780B78D2B2DBB29A4214D0013355
:1048F000402B28BF00230C48DCB2C05C0C700B4975
:104900000968C0B251B19A4238BF4032D31A1A2B4B
:1049100004DC00230B7010BD4FF0FF3010BD00BF52
:104920004A90FF1FE18FFF1F0A90FF1FDC8FFF1FC0
:10493000084B1A78084B1B78DBB29A4207D0013338
:10494000402B28BF0023054AD05CC0B270474FF00F
:10495000FF3070474A90FF1FE18FFF1F0A90FF1F33
:104960000C4B1B681B0514D50B4BDA7802F0CB02FD
:10497000DA7040225A74DA7842F03402DA70074B67
:104980001A78074BD2B21A70064B1B680BB1002283
:104990001A7070473480044000B00640E18FFF1F5A
:1049A0004A90FF1FDC8FFF1F30B5374B1A7912F08A
:1049B000300F31D072B69A7D02F0FF0022B9DA7959
:1049C00040225A7462B627E062B6304A3049137802
:1049D0000978DBB2C9B214462B4AD5795A1C402A51
:1049E00028BF00228A42EDB202D02A4B9D541346C2
:1049F000421E12F0FF00EFD1DAB22270264A12688E
:104A000052B18B4236BFC1F14001C1EB03035B18C9
:104A1000272BC4BF012313701B4BD978C9B20C06D6
:104A200020D51B7918061DD51C4B1D4A1D781378FF
:104A3000EDB2DBB21046AB420CD0134A0133282B47
:104A40001479184C28BF0023E45CE4B2D471127DC1
:104A5000072AF0D9DBB203700B4B1A79120644BF58
:104A60007C22DA704B060ED5074B1A7912F0400FF4
:104A7000194608D00C4B00221A700C4B1B6803B16E
:104A80001A703C23CB7030BD00B006404A90FF1F27
:104A9000E18FFF1F0A90FF1FDC8FFF1F5090FF1F49
:104AA0004B90FF1FE28FFF1FE08FFF1F4C90FF1FF7
:104AB000174B1A6842F480521A60164A002313708A
:104AC000154A1370154A1370154A1370154A13705E
:104AD000154A40F2133111604FF451715160134A7D
:104AE000C0F344311170C0F3471100F01F00517042
:104AF0009072937013742C23D3700D4B40226FF47B
:104B00004B711A700B444FF400321A60704700BFAB
:104B100034800440C290FF1F5990FF1FC890FF1FB0
:104B2000C390FF1F5890FF1F08C0044000C00640FC
:104B300031E400E0134A937800F0030103F0EC0342
:104B40000B43410748BF43F01003937000F00F037D
:104B5000042B0C4903D18B7943F040038B715379BB
:104B6000C20603F0EF03074A48BF43F01003537136
:104B70009379810603F0EF0348BF43F0100393716C
:104B8000704700BF00C0064008B5114B1B68DB042E
:104B900000D408BD0F4B1A7802F0FF0312B1FEF7E4
:104BA0002BFFF7E70C4A4FF4003111600B4A0C4918
:104BB000D37040F203120A604A600A4A13700A4A2C
:104BC00013700A4B1B680BB101221A7008BD00BF9D
:104BD000348004405890FF1F84E100E000C006408C
:104BE00008C00440C290FF1F5990FF1F5490FF1F40
:104BF00038B50446094B1B7803F0FF05002BF9D1AB
:104C000020460121FEF7A8F820462946FEF776F84F
:104C1000034B53F83420034B1A6038BD5890FF1FE4
:104C2000E86C0000C490FF1F10B509B140F080008F
:104C30000E4A1378984217D00D4C2468E40412D51C
:104C400003F07F03082B02D10A4B00241C600029CB
:104C500000F07F030CBF44216021082B03D1054BDA
:104C600041F440711960107010BD00BFB387FF1F81
:104C7000348004400CC004407047FFFF0D4A38B533
:104C8000146814F480524FF0000410D021280A4D0B
:104C90000AD80A4A012152F830302B60FEF75CF83E
:104CA0002B681C70012038BD2C60204638BD104692
:104CB00038BD00BF348004405490FF1FE86C0000F2
:104CC0000B4B1B6813F4805310D00E28094B09D1ED
:104CD000094A40F2023111605A7B42F001025A73D4
:104CE000012070475A7B02F0FE025A730020704781
:104CF0003480044000C0064004C00440F8B51D4B99
:104D00001B68DA04064633D51B4B1B680BB1012226
:104D10001A701A4B1C780134282C1F4628BF002417
:104D2000174D2B78A34218D1FDF79AFF40280FDCCE
:104D3000144A13791B06F3D52B7813490133282B1A
:104D400028BF0023C95CDBB2C9B2D1712B70E7E781
:104D5000FF28E5DDFEF750FEE2E70B4BF6B21E55ED
:104D60000A4B01221A70074BE4B2AC223C70DA7095
:104D7000F8BD00BF34800440C490FF1FC890FF1FDF
:104D8000C390FF1F00C006405A90FF1F5890FF1F9E
:104D900038B504464518AC4204D014F8010BFFF7AF
:104DA000ADFFF8E738BDFFFF08B5034B1B7813B123
:104DB000FEF722FEF9E708BD5890FF1F064A074B91
:104DC0001B781078DBB2C0B283422CBF273000F1D1
:104DD000FF30C01A704700BFC390FF1FC890FF1F6D
:104DE000054B1878054B1B78C0B2DBB2984238BF30
:104DF0004030C01A704700BFC290FF1F5990FF1F7C
:104E000010B5104B10491A780B78D2B2DBB29A4227
:104E100014D00133402B28BF00230C48DCB2C05C07
:104E20000C700B490968C0B251B19A4238BF403288
:104E3000D31A1A2B04DC00230B7010BD4FF0FF3087
:104E400010BD00BFC290FF1F5990FF1F8290FF1F2F
:104E50005490FF1F084B1A78084B1B78DBB29A421C
:104E600007D00133402B28BF0023054AD05CC0B2D5
:104E700070474FF0FF307047C290FF1F5990FF1FDF
:104E80008290FF1F054B1A78054BD2B21A70054B62
:104E90001B680BB100221A70704700BF5990FF1FAA
:104EA000C290FF1F5490FF1F10B5294B1A7992062C
:104EB00020D5284AD879137827490133402B09781F
:104EC00028BF00238B42C0B203D02449C854D9B2B2
:104ED0001170234A116869B1224A1278D2B2934202
:104EE00036BFC2F14002C2EB03039B18272BC4BF9D
:104EF00001230B70164AD178C9B20C0616D5137966
:104F0000180613D5184B17481C780378DBB29C425F
:104F100002D16C23D37009E00133282B28BF002372
:104F2000124CE45CDBB2E4B2D47103704B060ED5D4
:104F3000074B1A7912F0400F194608D00C4B00228B
:104F40001A700C4B1B6803B11A702C23CB7010BD68
:104F500000C00640C290FF1F5990FF1F8290FF1FA4
:104F60005490FF1FC390FF1FC890FF1F5A90FF1F50
:104F70005890FF1FC490FF1F1FB572B6154B7022CB
:104F80001A70154A412111700F2102F8011C80226C
:104F90001A701A781206FCD5104B186862B6104BBE
:104FA000984298BF0A2301AC98BF584321460A2271
:104FB000FDF776FE0023E15C0A4A29B102EB4300CB
:104FC00001330A2B4180F6D101335B00137004B02A
:104FD00010BD00BF00000240070002400800024070
:104FE0007F9698003C88FF1F81F0004102E000BFDF
:104FF00083F0004330B54FEA41044FEA430594EA99
:10500000050F08BF90EA020F1FBF54EA000C55EAD3
:10501000020C7FEA645C7FEA655C00F0E2804FEAA4
:105020005454D4EB5555B8BF6D420CDD2C4480EA86
:10503000020281EA030382EA000083EA010180EAB6
:10504000020281EA0303362D88BF30BD11F0004F04
:105050004FEA01314FF4801C4CEA113102D040423A
:1050600061EB410113F0004F4FEA03334CEA133375
:1050700002D0524263EB430394EA050F00F0A7808D
:10508000A4F10104D5F1200E0DDB02FA0EFC22FA88
:1050900005F2801841F1000103FA0EF2801843FA7C
:1050A00005F359410EE0A5F120050EF1200E012A6D
:1050B00003FA0EFC28BF4CF0020C43FA05F3C018AB
:1050C00051EBE37101F0004507D54FF0000EDCF124
:1050D000000C7EEB00006EEB0101B1F5801F1BD3CD
:1050E000B1F5001F0CD349085FEA30004FEA3C0CD1
:1050F00004F101044FEA445212F5800F80F09A80C7
:10510000BCF1004F08BF5FEA500C50F1000041EBCA
:10511000045141EA050130BD5FEA4C0C404141EBCE
:10512000010111F4801FA4F10104E9D191F0000FF5
:1051300004BF01460020B1FA81F308BF2033A3F178
:105140000B03B3F120020CDA0C3208DD02F1140C6F
:10515000C2F10C0201FA0CF021FA02F10CE002F1AA
:105160001402D8BFC2F1200C01FA02F120FA0CFCA3
:10517000DCBF41EA0C019040E41AA2BF01EB0451EC
:10518000294330BD6FEA04041F3C1CDA0C340EDCEA
:1051900004F11404C4F1200220FA04F001FA02F32D
:1051A00040EA030021FA04F345EA030130BDC4F1EB
:1051B0000C04C4F1200220FA02F001FA04F340EAE0
:1051C0000300294630BD21FA04F0294630BD94F091
:1051D000000F83F4801306BF81F480110134013D78
:1051E0004EE77FEA645C18BF7FEA655C29D094EAE9
:1051F000050F08BF90EA020F05D054EA000C04BF67
:105200001946104630BD91EA030F1EBF0021002051
:1052100030BD5FEA545C05D14000494128BF41F0F0
:10522000004130BD14F580043CBF01F5801130BD54
:1052300001F0004545F0FE4141F470014FF00000DF
:1052400030BD7FEA645C1ABF194610467FEA655C90
:105250001CBF0B46024650EA013406BF52EA033532
:1052600091EA030F41F4002130BD00BF90F0000F20
:1052700004BF0021704730B54FF4806404F132045C
:105280004FF000054FF0000150E700BF90F0000F15
:1052900004BF0021704730B54FF4806404F132043C
:1052A00010F0004548BF40424FF000013EE700BF0C
:1052B00042004FEAE2014FEA31014FEA02701FBF9C
:1052C00012F07F4393F07F4F81F06051704792F06E
:1052D000000F14BF93F07F4F704730B54FF46074E8
:1052E00001F0004521F0004120E700BF50EA010233
:1052F00008BF704730B54FF000050AE050EA0102E0
:1053000008BF704730B511F0004502D5404261EB4F
:1053100041014FF4806404F132045FEA915C3FF490
:10532000DCAE4FF003025FEADC0C18BF03325FEA29
:10533000DC0C18BF033202EBDC02C2F1200300FADE
:1053400003FC20FA02F001FA03FE40EA0E0021FA03
:1053500002F11444C1E600BF4FF0FF3C06E000BF7D
:105360004FF0010C02E000BF4FF0010C4DF804CDEE
:105370004FEA410C7FEA6C5C4FEA430C18BF7FEAAE
:105380006C5C1BD001B050EA410C0CBF52EA430CDC
:1053900091EA030F02BF90EA020F0020704710F15C
:1053A000000F91EA030F58BF994208BF90422CBFEB
:1053B000D8176FEAE37040F0010070474FEA410CE4
:1053C0007FEA6C5C02D150EA013C07D14FEA430C02
:1053D0007FEA6C5CD6D152EA033CD3D05DF8040B73
:1053E000704700BF8446104662468C4619466346A5
:1053F00000E000BF01B5FFF7B7FF002848BF10F17C
:10540000000F01BD4DF808EDFFF7F4FF0CBF0120C0
:1054100000205DF808FB00BF4DF808EDFFF7EAFF3C
:1054200034BF012000205DF808FB00BF4DF808EDF7
:10543000FFF7E0FF94BF012000205DF808FB00BFEC
:105440004DF808EDFFF7CEFF94BF012000205DF876
:1054500008FB00BF4DF808EDFFF7C4FF34BF012083
:1054600000205DF808FB00BF4FEA410212F5001270
:1054700015D211D56FF47873B3EB625212D94FEA9B
:10548000C12343F0004343EA505311F0004F23FA85
:1054900002F018BF404270474FF00000704750EADA
:1054A000013005D111F0004008BF6FF00040704797
:1054B0004FF00000704700BF4FEA4102B2F1E043F5
:1054C00024BFB3F5001CDCF1FE5C0DD901F0004CEB
:1054D0004FEAC0024CEA5070B2F1004F40EB83003B
:1054E00008BF20F00100704711F0804F21D113F167
:1054F0003872BCBF01F00040704741F480114FEAA0
:105500005252C2F11802C2F1200C10FA0CF320FA28
:1055100002F018BF40F001004FEAC1234FEAD32345
:1055200003FA0CFC40EA0C0023FA02F34FEA4303AF
:10553000CCE77FEA625307D150EA01331EBF4FF038
:10554000FE4040F44000704701F0004040F0FE4053
:1055500040F40000704700BF80F0004002E000BF50
:1055600081F0004142001FBF5FEA410392EA030F4E
:105570007FEA226C7FEA236C6AD04FEA1262D2EB98
:105580001363C1BFD218414048404140B8BF5B429D
:10559000192B88BF704710F0004F40F4000020F036
:1055A0007F4018BF404211F0004F41F4000121F04C
:1055B0007F4118BF494292EA030F3FD0A2F1010296
:1055C00041FA03FC10EB0C00C3F1200301FA03F1D4
:1055D00000F0004302D5494260EB4000B0F5000FF7
:1055E00013D3B0F1807F06D340084FEA310102F1B6
:1055F0000102FE2A51D2B1F1004F40EBC25008BF68
:1056000020F0010040EA03007047490040EB000031
:1056100010F4000FA2F10102EDD1B0FA80FCACF160
:10562000080CB2EB0C0200FA0CF0AABF00EBC2505F
:1056300052421843BCBFD0401843704792F0000F4D
:1056400081F4000106BF80F400000132013BB5E7A0
:105650004FEA41037FEA226C18BF7FEA236C21D016
:1056600092EA030F04D092F0000F08BF084670477B
:1056700090EA010F1CBF0020704712F07F4F04D149
:10568000400028BF40F00040704712F100723CBF5C
:1056900000F50000704700F0004343F0FE4040F486
:1056A000000070477FEA226216BF08467FEA236344
:1056B0000146420206BF5FEA412390EA010F40F42F
:1056C000800070474FF0000304E000BF10F000437B
:1056D00048BF40425FEA000C08BF704743F0964362
:1056E00001464FF000001CE050EA010208BF70477D
:1056F0004FF000030AE000BF50EA010208BF704704
:1057000011F0004302D5404261EB41015FEA010C18
:1057100002BF84460146002043F0B64308BFA3F110
:105720008053A3F50003BCFA8CF2083AA3EBC253F2
:1057300010DB01FA02FC634400FA02FCC2F1200211
:10574000BCF1004F20FA02F243EB020008BF20F048
:105750000100704702F1200201FA02FCC2F12002AE
:1057600050EA4C0021FA02F243EB020008BF20EAA3
:10577000DC7070474FF0FF0C1CEAD0521EBF1CEAD1
:10578000D15392EA0C0F93EA0C0F6FD01A4480EABF
:10579000010C400218BF5FEA41211ED04FF00063A8
:1057A00043EA501043EA5111A0FB01310CF00040D4
:1057B000B1F5000F3EBF490041EAD3715B0040EAFA
:1057C000010062F17F02FD2A1DD8B3F1004F40EBCA
:1057D000C25008BF20F00100704790F0000F0CF09D
:1057E000004C08BF49024CEA502040EA51207F3A61
:1057F000C2BFD2F1FF0340EAC250704740F400003C
:105800004FF00003013A5DDC12F1190FDCBF00F02C
:1058100000407047C2F10002410021FA02F1C2F1DA
:10582000200200FA02FC5FEA310040F1000053EA76
:105830004C0308BF20EADC70704792F0000F00F0C4
:10584000004C02BF400010F4000F013AF9D040EACA
:105850000C0093F0000F01F0004C02BF490011F45E
:10586000000F013BF9D041EA0C018FE70CEAD1535C
:1058700092EA0C0F18BF93EA0C0F0AD030F0004CDC
:1058800018BF31F0004CD8D180EA010000F0004090
:10589000704790F0000F17BF90F0004F084691F04E
:1058A000000F91F0004F14D092EA0C0F01D1420288
:1058B0000FD193EA0C0F03D14B0218BF084608D151
:1058C00080EA010000F0004040F0FE4040F400009B
:1058D000704740F0FE4040F4400070474FF0FF0C2E
:1058E0001CEAD0521EBF1CEAD15392EA0C0F93EA75
:1058F0000C0F69D0A2EB030280EA010C49024FEAC7
:10590000402037D04FF0805343EA111143EA10137F
:105910000CF000408B4238BF5B0042F17D024FF437
:10592000000C8B4224BF5B1A40EA0C00B3EB510F12
:1059300024BFA3EB510340EA5C00B3EB910F24BFFB
:10594000A3EB910340EA9C00B3EBD10F24BFA3EB80
:10595000D10340EADC001B0118BF5FEA1C1CE0D148
:10596000FD2A3FF650AF8B4240EBC25008BF20F0FB
:10597000010070470CF0004C4CEA50207F32C2BF4F
:10598000D2F1FF0340EAC250704740F400004FF0EC
:105990000003013A37E792F0000F00F0004C02BF1D
:1059A000400010F4000F013AF9D040EA0C0093F0E7
:1059B000000F01F0004C02BF490011F4000F013B41
:1059C000F9D041EA0C0195E70CEAD15392EA0C0FA9
:1059D00008D142027FF47DAF93EA0C0F7FF470AFE1
:1059E000084676E793EA0C0F04D14B023FF44CAF24
:1059F00008466EE730F0004C18BF31F0004CCAD1B9
:105A000030F000427FF45CAF31F000437FF43CAFF4
:105A10005FE700BF4FEA4002B2F1FE4F0FD34FF0F5
:105A20009E03B3EB12620DD94FEA002343F000430B
:105A300010F0004F23FA02F018BF404270474FF0B9
:105A40000000704712F1610F01D1420205D110F040
:105A5000004008BF6FF0004070474FF000007047F3
:105A600042000ED2B2F1FE4F0BD34FF09E03B3EBC8
:105A7000126209D44FEA002343F0004323FA02F0F4
:105A800070474FF00000704712F1610F01D14202E0
:105A900002D14FF0FF3070474FF00000704700BF59
:105AA00038B504469DF81400A37000239842627034
:105AB0009DF81020227214BF1D4602250122A380EA
:105AC0002273E380A273638121706373E0700846E0
:105AD0002946FDF741F960782946FDF73DF9294649
